{
  "_format": "hh-sol-artifact-1",
  "contractName": "FileAccessControl",
  "sourceName": "contracts/FileAccessControl.sol",
  "abi": [
    {
      "anonymous": false,
      "inputs": [
        {
          "indexed": true,
          "internalType": "uint256",
          "name": "fileId",
          "type": "uint256"
        },
        {
          "indexed": true,
          "internalType": "address",
          "name": "viewer",
          "type": "address"
        },
        {
          "indexed": true,
          "internalType": "address",
          "name": "owner",
          "type": "address"
        }
      ],
      "name": "AccessGranted",
      "type": "event"
    },
    {
      "anonymous": false,
      "inputs": [
        {
          "indexed": true,
          "internalType": "uint256",
          "name": "fileId",
          "type": "uint256"
        },
        {
          "indexed": true,
          "internalType": "address",
          "name": "viewer",
          "type": "address"
        },
        {
          "indexed": true,
          "internalType": "address",
          "name": "owner",
          "type": "address"
        }
      ],
      "name": "AccessRevoked",
      "type": "event"
    },
    {
      "anonymous": false,
      "inputs": [
        {
          "indexed": true,
          "internalType": "uint256",
          "name": "fileId",
          "type": "uint256"
        },
        {
          "indexed": false,
          "internalType": "string",
          "name": "cid",
          "type": "string"
        },
        {
          "indexed": false,
          "internalType": "string",
          "name": "fileName",
          "type": "string"
        },
        {
          "indexed": true,
          "internalType": "address",
          "name": "owner",
          "type": "address"
        },
        {
          "indexed": false,
          "internalType": "uint256",
          "name": "uploadedAt",
          "type": "uint256"
        }
      ],
      "name": "FileUploaded",
      "type": "event"
    },
    {
      "inputs": [],
      "name": "MAX_CID_LENGTH",
      "outputs": [
        {
          "internalType": "uint256",
          "name": "",
          "type": "uint256"
        }
      ],
      "stateMutability": "view",
      "type": "function"
    },
    {
      "inputs": [],
      "name": "MAX_FILENAME_LENGTH",
      "outputs": [
        {
          "internalType": "uint256",
          "name": "",
          "type": "uint256"
        }
      ],
      "stateMutability": "view",
      "type": "function"
    },
    {
      "inputs": [
        {
          "internalType": "uint256",
          "name": "",
          "type": "uint256"
        },
        {
          "internalType": "address",
          "name": "",
          "type": "address"
        }
      ],
      "name": "accessList",
      "outputs": [
        {
          "internalType": "bool",
          "name": "",
          "type": "bool"
        }
      ],
      "stateMutability": "view",
      "type": "function"
    },
    {
      "inputs": [],
      "name": "fileCount",
      "outputs": [
        {
          "internalType": "uint256",
          "name": "",
          "type": "uint256"
        }
      ],
      "stateMutability": "view",
      "type": "function"
    },
    {
      "inputs": [
        {
          "internalType": "uint256",
          "name": "",
          "type": "uint256"
        }
      ],
      "name": "files",
      "outputs": [
        {
          "internalType": "string",
          "name": "cid",
          "type": "string"
        },
        {
          "internalType": "string",
          "name": "fileName",
          "type": "string"
        },
        {
          "internalType": "address",
          "name": "owner",
          "type": "address"
        },
        {
          "internalType": "uint256",
          "name": "uploadedAt",
          "type": "uint256"
        }
      ],
      "stateMutability": "view",
      "type": "function"
    },
    {
      "inputs": [
        {
          "internalType": "uint256",
          "name": "_fileId",
          "type": "uint256"
        }
      ],
      "name": "getFile",
      "outputs": [
        {
          "internalType": "string",
          "name": "cid",
          "type": "string"
        },
        {
          "internalType": "string",
          "name": "fileName",
          "type": "string"
        },
        {
          "internalType": "address",
          "name": "owner",
          "type": "address"
        },
        {
          "internalType": "uint256",
          "name": "uploadedAt",
          "type": "uint256"
        }
      ],
      "stateMutability": "view",
      "type": "function"
    },
    {
      "inputs": [
        {
          "internalType": "address",
          "name": "_owner",
          "type": "address"
        }
      ],
      "name": "getOwnerFiles",
      "outputs": [
        {
          "internalType": "uint256[]",
          "name": "",
          "type": "uint256[]"
        }
      ],
      "stateMutability": "view",
      "type": "function"
    },
    {
      "inputs": [
        {
          "internalType": "address",
          "name": "_owner",
          "type": "address"
        },
        {
          "internalType": "uint256",
          "name": "_offset",
          "type": "uint256"
        },
        {
          "internalType": "uint256",
          "name": "_limit",
          "type": "uint256"
        }
      ],
      "name": "getOwnerFilesPaginated",
      "outputs": [
        {
          "internalType": "uint256[]",
          "name": "page",
          "type": "uint256[]"
        },
        {
          "internalType": "uint256",
          "name": "total",
          "type": "uint256"
        }
      ],
      "stateMutability": "view",
      "type": "function"
    },
    {
      "inputs": [
        {
          "internalType": "uint256",
          "name": "_fileId",
          "type": "uint256"
        },
        {
          "internalType": "address",
          "name": "_viewer",
          "type": "address"
        }
      ],
      "name": "grantAccess",
      "outputs": [],
      "stateMutability": "nonpayable",
      "type": "function"
    },
    {
      "inputs": [
        {
          "internalType": "uint256",
          "name": "_fileId",
          "type": "uint256"
        },
        {
          "internalType": "address[]",
          "name": "_viewers",
          "type": "address[]"
        }
      ],
      "name": "grantAccessBatch",
      "outputs": [],
      "stateMutability": "nonpayable",
      "type": "function"
    },
    {
      "inputs": [
        {
          "internalType": "uint256",
          "name": "_fileId",
          "type": "uint256"
        },
        {
          "internalType": "address",
          "name": "_viewer",
          "type": "address"
        }
      ],
      "name": "hasAccess",
      "outputs": [
        {
          "internalType": "bool",
          "name": "",
          "type": "bool"
        }
      ],
      "stateMutability": "view",
      "type": "function"
    },
    {
      "inputs": [
        {
          "internalType": "address",
          "name": "",
          "type": "address"
        },
        {
          "internalType": "uint256",
          "name": "",
          "type": "uint256"
        }
      ],
      "name": "ownerFiles",
      "outputs": [
        {
          "internalType": "uint256",
          "name": "",
          "type": "uint256"
        }
      ],
      "stateMutability": "view",
      "type": "function"
    },
    {
      "inputs": [
        {
          "internalType": "string",
          "name": "_cid",
          "type": "string"
        },
        {
          "internalType": "string",
          "name": "_fileName",
          "type": "string"
        }
      ],
      "name": "registerFile",
      "outputs": [
        {
          "internalType": "uint256",
          "name": "fileId",
          "type": "uint256"
        }
      ],
      "stateMutability": "nonpayable",
      "type": "function"
    },
    {
      "inputs": [
        {
          "internalType": "uint256",
          "name": "_fileId",
          "type": "uint256"
        },
        {
          "internalType": "address",
          "name": "_viewer",
          "type": "address"
        }
      ],
      "name": "revokeAccess",
      "outputs": [],
      "stateMutability": "nonpayable",
      "type": "function"
    },
    {
      "inputs": [
        {
          "internalType": "uint256",
          "name": "_fileId",
          "type": "uint256"
        },
        {
          "internalType": "address[]",
          "name": "_viewers",
          "type": "address[]"
        }
      ],
      "name": "revokeAccessBatch",
      "outputs": [],
      "stateMutability": "nonpayable",
      "type": "function"
    },
    {
      "inputs": [],
      "name": "totalFiles",
      "outputs": [
        {
          "internalType": "uint256",
          "name": "",
          "type": "uint256"
        }
      ],
      "stateMutability": "view",
      "type": "function"
    }
  ],
  "bytecode": "0x608060405234801561001057600080fd5b50612b80806100206000396000f3fe608060405234801561001057600080fd5b50600436106101005760003560e01c8063ced1419811610097578063e55f796411610066578063e55f7964146102c5578063e9e34cf7146102f5578063ed79172414610311578063f4c714b41461034157610100565b8063ced1419814610218578063d6d4d1ed14610248578063d9a5ec1b14610279578063de1dc8b51461029557610100565b806365dd152c116100d357806365dd152c1461019057806392cf0557146101ac578063a82da60d146101ca578063b52d6624146101e857610100565b806317e592e2146101055780632bfda3131461012157806343953519146101545780636131613a14610172575b600080fd5b61011f600480360381019061011a9190611ce2565b610374565b005b61013b60048036038101906101369190611d42565b6106e2565b60405161014b9493929190611e4f565b60405180910390f35b61015c61099b565b6040516101699190611ea2565b60405180910390f35b61017a6109a1565b6040516101879190611ea2565b60405180910390f35b6101aa60048036038101906101a59190611ee9565b6109a7565b005b6101b4610cc6565b6040516101c19190611ea2565b60405180910390f35b6101d2610cd0565b6040516101df9190611ea2565b60405180910390f35b61020260048036038101906101fd9190611f29565b610cd5565b60405161020f9190612014565b60405180910390f35b610232600480360381019061022d9190611ee9565b610d6c565b60405161023f9190612051565b60405180910390f35b610262600480360381019061025d919061206c565b610e7a565b6040516102709291906120bf565b60405180910390f35b610293600480360381019061028e9190611ee9565b611039565b005b6102af60048036038101906102aa9190611ee9565b611357565b6040516102bc9190612051565b60405180910390f35b6102df60048036038101906102da91906120ef565b611386565b6040516102ec9190611ea2565b60405180910390f35b61030f600480360381019061030a9190611ce2565b6113b7565b005b61032b60048036038101906103269190612185565b611726565b6040516103389190611ea2565b60405180910390f35b61035b60048036038101906103569190611d42565b611add565b60405161036b9493929190611e4f565b60405180910390f35b82600073ffffffffffffffffffffffffffffffffffffffff1660008083815260200190815260200160002060020160009054906101000a900473ffffffffffffffffffffffffffffffffffffffff1673ffffffffffffffffffffffffffffffffffffffff1603610419576040517f08c379a000000000000000000000000000000000000000000000000000000000815260040161041090612252565b60405180910390fd5b833373ffffffffffffffffffffffffffffffffffffffff1660008083815260200190815260200160002060020160009054906101000a900473ffffffffffffffffffffffffffffffffffffffff1673ffffffffffffffffffffffffffffffffffffffff16146104bd576040517f08c379a00000000000000000000000000000000000000000000000000000000081526004016104b4906122be565b60405180910390fd5b60005b848490508110156106da573373ffffffffffffffffffffffffffffffffffffffff168585838181106104f5576104f46122de565b5b905060200201602081019061050a9190611f29565b73ffffffffffffffffffffffffffffffffffffffff16141580156105af5750600160008781526020019081526020016000206000868684818110610551576105506122de565b5b90506020020160208101906105669190611f29565b73ffffffffffffffffffffffffffffffffffffffff1673ffffffffffffffffffffffffffffffffffffffff16815260200190815260200160002060009054906101000a900460ff165b156106c75760006001600088815260200190815260200160002060008787858181106105de576105dd6122de565b5b90506020020160208101906105f39190611f29565b73ffffffffffffffffffffffffffffffffffffffff1673ffffffffffffffffffffffffffffffffffffffff16815260200190815260200160002060006101000a81548160ff0219169083151502179055503373ffffffffffffffffffffffffffffffffffffffff1685858381811061066e5761066d6122de565b5b90506020020160208101906106839190611f29565b73ffffffffffffffffffffffffffffffffffffffff16877f260547d4038414ef72f081dcde91825693dff9bc433178f3e92ad36e0cd2275060405160405180910390a45b80806106d29061233c565b9150506104c0565b505050505050565b60608060008084600073ffffffffffffffffffffffffffffffffffffffff1660008083815260200190815260200160002060020160009054906101000a900473ffffffffffffffffffffffffffffffffffffffff1673ffffffffffffffffffffffffffffffffffffffff160361078d576040517f08c379a000000000000000000000000000000000000000000000000000000000815260040161078490612252565b60405180910390fd5b6001600087815260200190815260200160002060003373ffffffffffffffffffffffffffffffffffffffff1673ffffffffffffffffffffffffffffffffffffffff16815260200190815260200160002060009054906101000a900460ff1661082a576040517f08c379a0000000000000000000000000000000000000000000000000000000008152600401610821906123d0565b60405180910390fd5b6000806000888152602001908152602001600020905080600001816001018260020160009054906101000a900473ffffffffffffffffffffffffffffffffffffffff16836003015483805461087e9061241f565b80601f01602080910402602001604051908101604052809291908181526020018280546108aa9061241f565b80156108f75780601f106108cc576101008083540402835291602001916108f7565b820191906000526020600020905b8154815290600101906020018083116108da57829003601f168201915b5050505050935082805461090a9061241f565b80601f01602080910402602001604051908101604052809291908181526020018280546109369061241f565b80156109835780601f1061095857610100808354040283529160200191610983565b820191906000526020600020905b81548152906001019060200180831161096657829003601f168201915b50505050509250955095509550955050509193509193565b60035481565b61010081565b81600073ffffffffffffffffffffffffffffffffffffffff1660008083815260200190815260200160002060020160009054906101000a900473ffffffffffffffffffffffffffffffffffffffff1673ffffffffffffffffffffffffffffffffffffffff1603610a4c576040517f08c379a0000000000000000000000000000000000000000000000000000000008152600401610a4390612252565b60405180910390fd5b823373ffffffffffffffffffffffffffffffffffffffff1660008083815260200190815260200160002060020160009054906101000a900473ffffffffffffffffffffffffffffffffffffffff1673ffffffffffffffffffffffffffffffffffffffff1614610af0576040517f08c379a0000000000000000000000000000000000000000000000000000000008152600401610ae7906122be565b60405180910390fd5b600073ffffffffffffffffffffffffffffffffffffffff168373ffffffffffffffffffffffffffffffffffffffff1603610b5f576040517f08c379a0000000000000000000000000000000000000000000000000000000008152600401610b569061249c565b60405180910390fd5b6001600085815260200190815260200160002060008473ffffffffffffffffffffffffffffffffffffffff1673ffffffffffffffffffffffffffffffffffffffff16815260200190815260200160002060009054906101000a900460ff1615610bfd576040517f08c379a0000000000000000000000000000000000000000000000000000000008152600401610bf490612508565b60405180910390fd5b600180600086815260200190815260200160002060008573ffffffffffffffffffffffffffffffffffffffff1673ffffffffffffffffffffffffffffffffffffffff16815260200190815260200160002060006101000a81548160ff0219169083151502179055503373ffffffffffffffffffffffffffffffffffffffff168373ffffffffffffffffffffffffffffffffffffffff16857f97a8264d9d0b9e21370349f9b49be012a5d1e27829879df8ba166dba48f898c660405160405180910390a450505050565b6000600354905090565b608081565b6060600260008373ffffffffffffffffffffffffffffffffffffffff1673ffffffffffffffffffffffffffffffffffffffff168152602001908152602001600020805480602002602001604051908101604052809291908181526020018280548015610d6057602002820191906000526020600020905b815481526020019060010190808311610d4c575b50505050509050919050565b600082600073ffffffffffffffffffffffffffffffffffffffff1660008083815260200190815260200160002060020160009054906101000a900473ffffffffffffffffffffffffffffffffffffffff1673ffffffffffffffffffffffffffffffffffffffff1603610e13576040517f08c379a0000000000000000000000000000000000000000000000000000000008152600401610e0a90612252565b60405180910390fd5b6001600085815260200190815260200160002060008473ffffffffffffffffffffffffffffffffffffffff1673ffffffffffffffffffffffffffffffffffffffff16815260200190815260200160002060009054906101000a900460ff1691505092915050565b60606000600260008673ffffffffffffffffffffffffffffffffffffffff1673ffffffffffffffffffffffffffffffffffffffff168152602001908152602001600020805490509050808410610f1b57600067ffffffffffffffff811115610ee557610ee4612528565b5b604051908082528060200260200182016040528015610f135781602001602082028036833780820191505090505b509150611031565b60008482610f299190612557565b90506000818510610f3a5781610f3c565b845b90508067ffffffffffffffff811115610f5857610f57612528565b5b604051908082528060200260200182016040528015610f865781602001602082028036833780820191505090505b50935060005b8181101561102d57600260008973ffffffffffffffffffffffffffffffffffffffff1673ffffffffffffffffffffffffffffffffffffffff1681526020019081526020016000208188610fdf919061258b565b81548110610ff057610fef6122de565b5b906000526020600020015485828151811061100e5761100d6122de565b5b60200260200101818152505080806110259061233c565b915050610f8c565b5050505b935093915050565b81600073ffffffffffffffffffffffffffffffffffffffff1660008083815260200190815260200160002060020160009054906101000a900473ffffffffffffffffffffffffffffffffffffffff1673ffffffffffffffffffffffffffffffffffffffff16036110de576040517f08c379a00000000000000000000000000000000000000000000000000000000081526004016110d590612252565b60405180910390fd5b823373ffffffffffffffffffffffffffffffffffffffff1660008083815260200190815260200160002060020160009054906101000a900473ffffffffffffffffffffffffffffffffffffffff1673ffffffffffffffffffffffffffffffffffffffff1614611182576040517f08c379a0000000000000000000000000000000000000000000000000000000008152600401611179906122be565b60405180910390fd5b3373ffffffffffffffffffffffffffffffffffffffff168373ffffffffffffffffffffffffffffffffffffffff16036111f0576040517f08c379a00000000000000000000000000000000000000000000000000000000081526004016111e79061260b565b60405180910390fd5b6001600085815260200190815260200160002060008473ffffffffffffffffffffffffffffffffffffffff1673ffffffffffffffffffffffffffffffffffffffff16815260200190815260200160002060009054906101000a900460ff1661128d576040517f08c379a000000000000000000000000000000000000000000000000000000000815260040161128490612677565b60405180910390fd5b60006001600086815260200190815260200160002060008573ffffffffffffffffffffffffffffffffffffffff1673ffffffffffffffffffffffffffffffffffffffff16815260200190815260200160002060006101000a81548160ff0219169083151502179055503373ffffffffffffffffffffffffffffffffffffffff168373ffffffffffffffffffffffffffffffffffffffff16857f260547d4038414ef72f081dcde91825693dff9bc433178f3e92ad36e0cd2275060405160405180910390a450505050565b60016020528160005260406000206020528060005260406000206000915091509054906101000a900460ff1681565b600260205281600052604060002081815481106113a257600080fd5b90600052602060002001600091509150505481565b82600073ffffffffffffffffffffffffffffffffffffffff1660008083815260200190815260200160002060020160009054906101000a900473ffffffffffffffffffffffffffffffffffffffff1673ffffffffffffffffffffffffffffffffffffffff160361145c576040517f08c379a000000000000000000000000000000000000000000000000000000000815260040161145390612252565b60405180910390fd5b833373ffffffffffffffffffffffffffffffffffffffff1660008083815260200190815260200160002060020160009054906101000a900473ffffffffffffffffffffffffffffffffffffffff1673ffffffffffffffffffffffffffffffffffffffff1614611500576040517f08c379a00000000000000000000000000000000000000000000000000000000081526004016114f7906122be565b60405180910390fd5b60005b8484905081101561171e57600073ffffffffffffffffffffffffffffffffffffffff16858583818110611539576115386122de565b5b905060200201602081019061154e9190611f29565b73ffffffffffffffffffffffffffffffffffffffff16141580156115f45750600160008781526020019081526020016000206000868684818110611595576115946122de565b5b90506020020160208101906115aa9190611f29565b73ffffffffffffffffffffffffffffffffffffffff1673ffffffffffffffffffffffffffffffffffffffff16815260200190815260200160002060009054906101000a900460ff16155b1561170b5760018060008881526020019081526020016000206000878785818110611622576116216122de565b5b90506020020160208101906116379190611f29565b73ffffffffffffffffffffffffffffffffffffffff1673ffffffffffffffffffffffffffffffffffffffff16815260200190815260200160002060006101000a81548160ff0219169083151502179055503373ffffffffffffffffffffffffffffffffffffffff168585838181106116b2576116b16122de565b5b90506020020160208101906116c79190611f29565b73ffffffffffffffffffffffffffffffffffffffff16877f97a8264d9d0b9e21370349f9b49be012a5d1e27829879df8ba166dba48f898c660405160405180910390a45b80806117169061233c565b915050611503565b505050505050565b600080858590501161176d576040517f08c379a0000000000000000000000000000000000000000000000000000000008152600401611764906126e3565b60405180910390fd5b60808585905011156117b4576040517f08c379a00000000000000000000000000000000000000000000000000000000081526004016117ab9061274f565b60405180910390fd5b600083839050116117fa576040517f08c379a00000000000000000000000000000000000000000000000000000000081526004016117f1906127bb565b60405180910390fd5b610100838390501115611842576040517f08c379a000000000000000000000000000000000000000000000000000000000815260040161183990612827565b60405180910390fd5b60035490506003600081548092919061185a9061233c565b9190505550604051806080016040528086868080601f016020809104026020016040519081016040528093929190818152602001838380828437600081840152601f19601f82011690508083019250505050505050815260200184848080601f016020809104026020016040519081016040528093929190818152602001838380828437600081840152601f19601f8201169050808301925050505050505081526020013373ffffffffffffffffffffffffffffffffffffffff16815260200142815250600080838152602001908152602001600020600082015181600001908161194591906129f3565b50602082015181600101908161195b91906129f3565b5060408201518160020160006101000a81548173ffffffffffffffffffffffffffffffffffffffff021916908373ffffffffffffffffffffffffffffffffffffffff16021790555060608201518160030155905050600180600083815260200190815260200160002060003373ffffffffffffffffffffffffffffffffffffffff1673ffffffffffffffffffffffffffffffffffffffff16815260200190815260200160002060006101000a81548160ff021916908315150217905550600260003373ffffffffffffffffffffffffffffffffffffffff1673ffffffffffffffffffffffffffffffffffffffff1681526020019081526020016000208190806001815401808255809150506001900390600052602060002001600090919091909150553373ffffffffffffffffffffffffffffffffffffffff16817f998081f6704b4b62500b58f2a61aec83e1b44865f5836eb36c391e73aa20486a8787878742604051611acd959493929190612b01565b60405180910390a3949350505050565b6000602052806000526040600020600091509050806000018054611b009061241f565b80601f0160208091040260200160405190810160405280929190818152602001828054611b2c9061241f565b8015611b795780601f10611b4e57610100808354040283529160200191611b79565b820191906000526020600020905b815481529060010190602001808311611b5c57829003601f168201915b505050505090806001018054611b8e9061241f565b80601f0160208091040260200160405190810160405280929190818152602001828054611bba9061241f565b8015611c075780601f10611bdc57610100808354040283529160200191611c07565b820191906000526020600020905b815481529060010190602001808311611bea57829003601f168201915b5050505050908060020160009054906101000a900473ffffffffffffffffffffffffffffffffffffffff16908060030154905084565b600080fd5b600080fd5b6000819050919050565b611c5a81611c47565b8114611c6557600080fd5b50565b600081359050611c7781611c51565b92915050565b600080fd5b600080fd5b600080fd5b60008083601f840112611ca257611ca1611c7d565b5b8235905067ffffffffffffffff811115611cbf57611cbe611c82565b5b602083019150836020820283011115611cdb57611cda611c87565b5b9250929050565b600080600060408486031215611cfb57611cfa611c3d565b5b6000611d0986828701611c68565b935050602084013567ffffffffffffffff811115611d2a57611d29611c42565b5b611d3686828701611c8c565b92509250509250925092565b600060208284031215611d5857611d57611c3d565b5b6000611d6684828501611c68565b91505092915050565b600081519050919050565b600082825260208201905092915050565b60005b83811015611da9578082015181840152602081019050611d8e565b60008484015250505050565b6000601f19601f8301169050919050565b6000611dd182611d6f565b611ddb8185611d7a565b9350611deb818560208601611d8b565b611df481611db5565b840191505092915050565b600073ffffffffffffffffffffffffffffffffffffffff82169050919050565b6000611e2a82611dff565b9050919050565b611e3a81611e1f565b82525050565b611e4981611c47565b82525050565b60006080820190508181036000830152611e698187611dc6565b90508181036020830152611e7d8186611dc6565b9050611e8c6040830185611e31565b611e996060830184611e40565b95945050505050565b6000602082019050611eb76000830184611e40565b92915050565b611ec681611e1f565b8114611ed157600080fd5b50565b600081359050611ee381611ebd565b92915050565b60008060408385031215611f0057611eff611c3d565b5b6000611f0e85828601611c68565b9250506020611f1f85828601611ed4565b9150509250929050565b600060208284031215611f3f57611f3e611c3d565b5b6000611f4d84828501611ed4565b91505092915050565b600081519050919050565b600082825260208201905092915050565b6000819050602082019050919050565b611f8b81611c47565b82525050565b6000611f9d8383611f82565b60208301905092915050565b6000602082019050919050565b6000611fc182611f56565b611fcb8185611f61565b9350611fd683611f72565b8060005b83811015612007578151611fee8882611f91565b9750611ff983611fa9565b925050600181019050611fda565b5085935050505092915050565b6000602082019050818103600083015261202e8184611fb6565b905092915050565b60008115159050919050565b61204b81612036565b82525050565b60006020820190506120666000830184612042565b92915050565b60008060006060848603121561208557612084611c3d565b5b600061209386828701611ed4565b93505060206120a486828701611c68565b92505060406120b586828701611c68565b9150509250925092565b600060408201905081810360008301526120d98185611fb6565b90506120e86020830184611e40565b9392505050565b6000806040838503121561210657612105611c3d565b5b600061211485828601611ed4565b925050602061212585828601611c68565b9150509250929050565b60008083601f84011261214557612144611c7d565b5b8235905067ffffffffffffffff81111561216257612161611c82565b5b60208301915083600182028301111561217e5761217d611c87565b5b9250929050565b6000806000806040858703121561219f5761219e611c3d565b5b600085013567ffffffffffffffff8111156121bd576121bc611c42565b5b6121c98782880161212f565b9450945050602085013567ffffffffffffffff8111156121ec576121eb611c42565b5b6121f88782880161212f565b925092505092959194509250565b7f46696c6520646f6573206e6f7420657869737400000000000000000000000000600082015250565b600061223c601383611d7a565b915061224782612206565b602082019050919050565b6000602082019050818103600083015261226b8161222f565b9050919050565b7f4e6f74207468652066696c65206f776e65720000000000000000000000000000600082015250565b60006122a8601283611d7a565b91506122b382612272565b602082019050919050565b600060208201905081810360008301526122d78161229b565b9050919050565b7f4e487b7100000000000000000000000000000000000000000000000000000000600052603260045260246000fd5b7f4e487b7100000000000000000000000000000000000000000000000000000000600052601160045260246000fd5b600061234782611c47565b91507fffffffffffffffffffffffffffffffffffffffffffffffffffffffffffffffff82036123795761237861230d565b5b600182019050919050565b7f4e6f2061636365737320746f20746869732066696c6500000000000000000000600082015250565b60006123ba601683611d7a565b91506123c582612384565b602082019050919050565b600060208201905081810360008301526123e9816123ad565b9050919050565b7f4e487b7100000000000000000000000000000000000000000000000000000000600052602260045260246000fd5b6000600282049050600182168061243757607f821691505b60208210810361244a576124496123f0565b5b50919050565b7f496e76616c696420616464726573730000000000000000000000000000000000600082015250565b6000612486600f83611d7a565b915061249182612450565b602082019050919050565b600060208201905081810360008301526124b581612479565b9050919050565b7f416c726561647920686173206163636573730000000000000000000000000000600082015250565b60006124f2601283611d7a565b91506124fd826124bc565b602082019050919050565b60006020820190508181036000830152612521816124e5565b9050919050565b7f4e487b7100000000000000000000000000000000000000000000000000000000600052604160045260246000fd5b600061256282611c47565b915061256d83611c47565b92508282039050818111156125855761258461230d565b5b92915050565b600061259682611c47565b91506125a183611c47565b92508282019050808211156125b9576125b861230d565b5b92915050565b7f43616e6e6f74207265766f6b65206f776e206163636573730000000000000000600082015250565b60006125f5601883611d7a565b9150612600826125bf565b602082019050919050565b60006020820190508181036000830152612624816125e8565b9050919050565b7f446f6573206e6f74206861766520616363657373000000000000000000000000600082015250565b6000612661601483611d7a565b915061266c8261262b565b602082019050919050565b6000602082019050818103600083015261269081612654565b9050919050565b7f4349442063616e6e6f7420626520656d70747900000000000000000000000000600082015250565b60006126cd601383611d7a565b91506126d882612697565b602082019050919050565b600060208201905081810360008301526126fc816126c0565b9050919050565b7f43494420746f6f206c6f6e670000000000000000000000000000000000000000600082015250565b6000612739600c83611d7a565b915061274482612703565b602082019050919050565b600060208201905081810360008301526127688161272c565b9050919050565b7f46696c65206e616d652063616e6e6f7420626520656d70747900000000000000600082015250565b60006127a5601983611d7a565b91506127b08261276f565b602082019050919050565b600060208201905081810360008301526127d481612798565b9050919050565b7f46696c65206e616d6520746f6f206c6f6e670000000000000000000000000000600082015250565b6000612811601283611d7a565b915061281c826127db565b602082019050919050565b6000602082019050818103600083015261284081612804565b9050919050565b60008190508160005260206000209050919050565b60006020601f8301049050919050565b600082821b905092915050565b6000600883026128a97fffffffffffffffffffffffffffffffffffffffffffffffffffffffffffffffff8261286c565b6128b3868361286c565b95508019841693508086168417925050509392505050565b6000819050919050565b60006128f06128eb6128e684611c47565b6128cb565b611c47565b9050919050565b6000819050919050565b61290a836128d5565b61291e612916826128f7565b848454612879565b825550505050565b600090565b612933612926565b61293e818484612901565b505050565b5b818110156129625761295760008261292b565b600181019050612944565b5050565b601f8211156129a75761297881612847565b6129818461285c565b81016020851015612990578190505b6129a461299c8561285c565b830182612943565b50505b505050565b600082821c905092915050565b60006129ca600019846008026129ac565b1980831691505092915050565b60006129e383836129b9565b9150826002028217905092915050565b6129fc82611d6f565b67ffffffffffffffff811115612a1557612a14612528565b5b612a1f825461241f565b612a2a828285612966565b600060209050601f831160018114612a5d5760008415612a4b578287015190505b612a5585826129d7565b865550612abd565b601f198416612a6b86612847565b60005b82811015612a9357848901518255600182019150602085019450602081019050612a6e565b86831015612ab05784890151612aac601f8916826129b9565b8355505b6001600288020188555050505b505050505050565b82818337600083830152505050565b6000612ae08385611d7a565b9350612aed838584612ac5565b612af683611db5565b840190509392505050565b60006060820190508181036000830152612b1c818789612ad4565b90508181036020830152612b31818587612ad4565b9050612b406040830184611e40565b969550505050505056fea2646970667358221220b5e8003d42babfb886bce8bf8d22fb29c9a63c83040b6455cb04bf75460034e364736f6c63430008140033",
  "linkReferences": {},
  "deployedLinkReferences": {}
}