{
  "_format": "hh-sol-artifact-1",
  "contractName": "FileAccessControl",
  "sourceName": "contracts/FileAccessControl.sol",
  "abi": [
    {
      "anonymous": false,
      "inputs": [
        {
          "indexed": true,
          "internalType": "uint256",
          "name": "fileId",
          "type": "uint256"
        },
        {
          "indexed": true,
          "internalType": "address",
          "name": "viewer",
          "type": "address"
        },
        {
          "indexed": true,
          "internalType": "address",
          "name": "owner",
          "type": "address"
        }
      ],
      "name": "AccessGranted",
      "type": "event"
    },
    {
      "anonymous": false,
      "inputs": [
        {
          "indexed": true,
          "internalType": "uint256",
          "name": "fileId",
          "type": "uint256"
        },
        {
          "indexed": true,
          "internalType": "address",
          "name": "viewer",
          "type": "address"
        },
        {
          "indexed": true,
          "internalType": "address",
          "name": "owner",
          "type": "address"
        }
      ],
      "name": "AccessRevoked",
      "type": "event"
    },
    {
      "anonymous": false,
      "inputs": [
        {
          "indexed": true,
          "internalType": "uint256",
          "name": "fileId",
          "type": "uint256"
        },
        {
          "indexed": false,
          "internalType": "string",
          "name": "cid",
          "type": "string"
        },
        {
          "indexed": false,
          "internalType": "string",
          "name": "fileName",
          "type": "string"
        },
        {
          "indexed": true,
          "internalType": "address",
          "name": "owner",
          "type": "address"
        },
        {
          "indexed": false,
          "internalType": "uint256",
          "name": "uploadedAt",
          "type": "uint256"
        }
      ],
      "name": "FileUploaded",
      "type": "event"
    },
    {
      "inputs": [
        {
          "internalType": "uint256",
          "name": "",
          "type": "uint256"
        },
        {
          "internalType": "address",
          "name": "",
          "type": "address"
        }
      ],
      "name": "accessList",
      "outputs": [
        {
          "internalType": "bool",
          "name": "",
          "type": "bool"
        }
      ],
      "stateMutability": "view",
      "type": "function"
    },
    {
      "inputs": [],
      "name": "fileCount",
      "outputs": [
        {
          "internalType": "uint256",
          "name": "",
          "type": "uint256"
        }
      ],
      "stateMutability": "view",
      "type": "function"
    },
    {
      "inputs": [
        {
          "internalType": "uint256",
          "name": "",
          "type": "uint256"
        }
      ],
      "name": "files",
      "outputs": [
        {
          "internalType": "string",
          "name": "cid",
          "type": "string"
        },
        {
          "internalType": "string",
          "name": "fileName",
          "type": "string"
        },
        {
          "internalType": "address",
          "name": "owner",
          "type": "address"
        },
        {
          "internalType": "uint256",
          "name": "uploadedAt",
          "type": "uint256"
        }
      ],
      "stateMutability": "view",
      "type": "function"
    },
    {
      "inputs": [
        {
          "internalType": "uint256",
          "name": "_fileId",
          "type": "uint256"
        }
      ],
      "name": "getFile",
      "outputs": [
        {
          "internalType": "string",
          "name": "cid",
          "type": "string"
        },
        {
          "internalType": "string",
          "name": "fileName",
          "type": "string"
        },
        {
          "internalType": "address",
          "name": "owner",
          "type": "address"
        },
        {
          "internalType": "uint256",
          "name": "uploadedAt",
          "type": "uint256"
        }
      ],
      "stateMutability": "view",
      "type": "function"
    },
    {
      "inputs": [
        {
          "internalType": "address",
          "name": "_owner",
          "type": "address"
        }
      ],
      "name": "getOwnerFiles",
      "outputs": [
        {
          "internalType": "uint256[]",
          "name": "",
          "type": "uint256[]"
        }
      ],
      "stateMutability": "view",
      "type": "function"
    },
    {
      "inputs": [
        {
          "internalType": "uint256",
          "name": "_fileId",
          "type": "uint256"
        },
        {
          "internalType": "address",
          "name": "_viewer",
          "type": "address"
        }
      ],
      "name": "grantAccess",
      "outputs": [],
      "stateMutability": "nonpayable",
      "type": "function"
    },
    {
      "inputs": [
        {
          "internalType": "uint256",
          "name": "_fileId",
          "type": "uint256"
        },
        {
          "internalType": "address[]",
          "name": "_viewers",
          "type": "address[]"
        }
      ],
      "name": "grantAccessBatch",
      "outputs": [],
      "stateMutability": "nonpayable",
      "type": "function"
    },
    {
      "inputs": [
        {
          "internalType": "uint256",
          "name": "_fileId",
          "type": "uint256"
        },
        {
          "internalType": "address",
          "name": "_viewer",
          "type": "address"
        }
      ],
      "name": "hasAccess",
      "outputs": [
        {
          "internalType": "bool",
          "name": "",
          "type": "bool"
        }
      ],
      "stateMutability": "view",
      "type": "function"
    },
    {
      "inputs": [
        {
          "internalType": "address",
          "name": "",
          "type": "address"
        },
        {
          "internalType": "uint256",
          "name": "",
          "type": "uint256"
        }
      ],
      "name": "ownerFiles",
      "outputs": [
        {
          "internalType": "uint256",
          "name": "",
          "type": "uint256"
        }
      ],
      "stateMutability": "view",
      "type": "function"
    },
    {
      "inputs": [
        {
          "internalType": "string",
          "name": "_cid",
          "type": "string"
        },
        {
          "internalType": "string",
          "name": "_fileName",
          "type": "string"
        }
      ],
      "name": "registerFile",
      "outputs": [
        {
          "internalType": "uint256",
          "name": "fileId",
          "type": "uint256"
        }
      ],
      "stateMutability": "nonpayable",
      "type": "function"
    },
    {
      "inputs": [
        {
          "internalType": "uint256",
          "name": "_fileId",
          "type": "uint256"
        },
        {
          "internalType": "address",
          "name": "_viewer",
          "type": "address"
        }
      ],
      "name": "revokeAccess",
      "outputs": [],
      "stateMutability": "nonpayable",
      "type": "function"
    },
    {
      "inputs": [],
      "name": "totalFiles",
      "outputs": [
        {
          "internalType": "uint256",
          "name": "",
          "type": "uint256"
        }
      ],
      "stateMutability": "view",
      "type": "function"
    }
  ],
  "bytecode": "0x608060405234801561001057600080fd5b5061226f806100206000396000f3fe608060405234801561001057600080fd5b50600436106100b45760003560e01c8063d9a5ec1b11610071578063d9a5ec1b146101a4578063de1dc8b5146101c0578063e55f7964146101f0578063e9e34cf714610220578063ed7917241461023c578063f4c714b41461026c576100b4565b80632bfda313146100b957806343953519146100ec57806365dd152c1461010a57806392cf055714610126578063b52d662414610144578063ced1419814610174575b600080fd5b6100d360048036038101906100ce919061159b565b61029f565b6040516100e394939291906116a8565b60405180910390f35b6100f4610558565b60405161010191906116fb565b60405180910390f35b610124600480360381019061011f9190611742565b61055e565b005b61012e61087d565b60405161013b91906116fb565b60405180910390f35b61015e60048036038101906101599190611782565b610887565b60405161016b919061186d565b60405180910390f35b61018e60048036038101906101899190611742565b61091e565b60405161019b91906118aa565b60405180910390f35b6101be60048036038101906101b99190611742565b610a2c565b005b6101da60048036038101906101d59190611742565b610d4a565b6040516101e791906118aa565b60405180910390f35b61020a600480360381019061020591906118c5565b610d79565b60405161021791906116fb565b60405180910390f35b61023a6004803603810190610235919061196a565b610daa565b005b61025660048036038101906102519190611a20565b611119565b60405161026391906116fb565b60405180910390f35b6102866004803603810190610281919061159b565b6113fb565b60405161029694939291906116a8565b60405180910390f35b60608060008084600073ffffffffffffffffffffffffffffffffffffffff1660008083815260200190815260200160002060020160009054906101000a900473ffffffffffffffffffffffffffffffffffffffff1673ffffffffffffffffffffffffffffffffffffffff160361034a576040517f08c379a000000000000000000000000000000000000000000000000000000000815260040161034190611aed565b60405180910390fd5b6001600087815260200190815260200160002060003373ffffffffffffffffffffffffffffffffffffffff1673ffffffffffffffffffffffffffffffffffffffff16815260200190815260200160002060009054906101000a900460ff166103e7576040517f08c379a00000000000000000000000000000000000000000000000000000000081526004016103de90611b59565b60405180910390fd5b6000806000888152602001908152602001600020905080600001816001018260020160009054906101000a900473ffffffffffffffffffffffffffffffffffffffff16836003015483805461043b90611ba8565b80601f016020809104026020016040519081016040528092919081815260200182805461046790611ba8565b80156104b45780601f10610489576101008083540402835291602001916104b4565b820191906000526020600020905b81548152906001019060200180831161049757829003601f168201915b505050505093508280546104c790611ba8565b80601f01602080910402602001604051908101604052809291908181526020018280546104f390611ba8565b80156105405780601f1061051557610100808354040283529160200191610540565b820191906000526020600020905b81548152906001019060200180831161052357829003601f168201915b50505050509250955095509550955050509193509193565b60035481565b81600073ffffffffffffffffffffffffffffffffffffffff1660008083815260200190815260200160002060020160009054906101000a900473ffffffffffffffffffffffffffffffffffffffff1673ffffffffffffffffffffffffffffffffffffffff1603610603576040517f08c379a00000000000000000000000000000000000000000000000000000000081526004016105fa90611aed565b60405180910390fd5b823373ffffffffffffffffffffffffffffffffffffffff1660008083815260200190815260200160002060020160009054906101000a900473ffffffffffffffffffffffffffffffffffffffff1673ffffffffffffffffffffffffffffffffffffffff16146106a7576040517f08c379a000000000000000000000000000000000000000000000000000000000815260040161069e90611c25565b60405180910390fd5b600073ffffffffffffffffffffffffffffffffffffffff168373ffffffffffffffffffffffffffffffffffffffff1603610716576040517f08c379a000000000000000000000000000000000000000000000000000000000815260040161070d90611c91565b60405180910390fd5b6001600085815260200190815260200160002060008473ffffffffffffffffffffffffffffffffffffffff1673ffffffffffffffffffffffffffffffffffffffff16815260200190815260200160002060009054906101000a900460ff16156107b4576040517f08c379a00000000000000000000000000000000000000000000000000000000081526004016107ab90611cfd565b60405180910390fd5b600180600086815260200190815260200160002060008573ffffffffffffffffffffffffffffffffffffffff1673ffffffffffffffffffffffffffffffffffffffff16815260200190815260200160002060006101000a81548160ff0219169083151502179055503373ffffffffffffffffffffffffffffffffffffffff168373ffffffffffffffffffffffffffffffffffffffff16857f97a8264d9d0b9e21370349f9b49be012a5d1e27829879df8ba166dba48f898c660405160405180910390a450505050565b6000600354905090565b6060600260008373ffffffffffffffffffffffffffffffffffffffff1673ffffffffffffffffffffffffffffffffffffffff16815260200190815260200160002080548060200260200160405190810160405280929190818152602001828054801561091257602002820191906000526020600020905b8154815260200190600101908083116108fe575b50505050509050919050565b600082600073ffffffffffffffffffffffffffffffffffffffff1660008083815260200190815260200160002060020160009054906101000a900473ffffffffffffffffffffffffffffffffffffffff1673ffffffffffffffffffffffffffffffffffffffff16036109c5576040517f08c379a00000000000000000000000000000000000000000000000000000000081526004016109bc90611aed565b60405180910390fd5b6001600085815260200190815260200160002060008473ffffffffffffffffffffffffffffffffffffffff1673ffffffffffffffffffffffffffffffffffffffff16815260200190815260200160002060009054906101000a900460ff1691505092915050565b81600073ffffffffffffffffffffffffffffffffffffffff1660008083815260200190815260200160002060020160009054906101000a900473ffffffffffffffffffffffffffffffffffffffff1673ffffffffffffffffffffffffffffffffffffffff1603610ad1576040517f08c379a0000000000000000000000000000000000000000000000000000000008152600401610ac890611aed565b60405180910390fd5b823373ffffffffffffffffffffffffffffffffffffffff1660008083815260200190815260200160002060020160009054906101000a900473ffffffffffffffffffffffffffffffffffffffff1673ffffffffffffffffffffffffffffffffffffffff1614610b75576040517f08c379a0000000000000000000000000000000000000000000000000000000008152600401610b6c90611c25565b60405180910390fd5b3373ffffffffffffffffffffffffffffffffffffffff168373ffffffffffffffffffffffffffffffffffffffff1603610be3576040517f08c379a0000000000000000000000000000000000000000000000000000000008152600401610bda90611d69565b60405180910390fd5b6001600085815260200190815260200160002060008473ffffffffffffffffffffffffffffffffffffffff1673ffffffffffffffffffffffffffffffffffffffff16815260200190815260200160002060009054906101000a900460ff16610c80576040517f08c379a0000000000000000000000000000000000000000000000000000000008152600401610c7790611dd5565b60405180910390fd5b60006001600086815260200190815260200160002060008573ffffffffffffffffffffffffffffffffffffffff1673ffffffffffffffffffffffffffffffffffffffff16815260200190815260200160002060006101000a81548160ff0219169083151502179055503373ffffffffffffffffffffffffffffffffffffffff168373ffffffffffffffffffffffffffffffffffffffff16857f260547d4038414ef72f081dcde91825693dff9bc433178f3e92ad36e0cd2275060405160405180910390a450505050565b60016020528160005260406000206020528060005260406000206000915091509054906101000a900460ff1681565b60026020528160005260406000208181548110610d9557600080fd5b90600052602060002001600091509150505481565b82600073ffffffffffffffffffffffffffffffffffffffff1660008083815260200190815260200160002060020160009054906101000a900473ffffffffffffffffffffffffffffffffffffffff1673ffffffffffffffffffffffffffffffffffffffff1603610e4f576040517f08c379a0000000000000000000000000000000000000000000000000000000008152600401610e4690611aed565b60405180910390fd5b833373ffffffffffffffffffffffffffffffffffffffff1660008083815260200190815260200160002060020160009054906101000a900473ffffffffffffffffffffffffffffffffffffffff1673ffffffffffffffffffffffffffffffffffffffff1614610ef3576040517f08c379a0000000000000000000000000000000000000000000000000000000008152600401610eea90611c25565b60405180910390fd5b60005b8484905081101561111157600073ffffffffffffffffffffffffffffffffffffffff16858583818110610f2c57610f2b611df5565b5b9050602002016020810190610f419190611782565b73ffffffffffffffffffffffffffffffffffffffff1614158015610fe75750600160008781526020019081526020016000206000868684818110610f8857610f87611df5565b5b9050602002016020810190610f9d9190611782565b73ffffffffffffffffffffffffffffffffffffffff1673ffffffffffffffffffffffffffffffffffffffff16815260200190815260200160002060009054906101000a900460ff16155b156110fe576001806000888152602001908152602001600020600087878581811061101557611014611df5565b5b905060200201602081019061102a9190611782565b73ffffffffffffffffffffffffffffffffffffffff1673ffffffffffffffffffffffffffffffffffffffff16815260200190815260200160002060006101000a81548160ff0219169083151502179055503373ffffffffffffffffffffffffffffffffffffffff168585838181106110a5576110a4611df5565b5b90506020020160208101906110ba9190611782565b73ffffffffffffffffffffffffffffffffffffffff16877f97a8264d9d0b9e21370349f9b49be012a5d1e27829879df8ba166dba48f898c660405160405180910390a45b808061110990611e53565b915050610ef6565b505050505050565b6000808585905011611160576040517f08c379a000000000000000000000000000000000000000000000000000000000815260040161115790611ee7565b60405180910390fd5b60035490506003600081548092919061117890611e53565b9190505550604051806080016040528086868080601f016020809104026020016040519081016040528093929190818152602001838380828437600081840152601f19601f82011690508083019250505050505050815260200184848080601f016020809104026020016040519081016040528093929190818152602001838380828437600081840152601f19601f8201169050808301925050505050505081526020013373ffffffffffffffffffffffffffffffffffffffff16815260200142815250600080838152602001908152602001600020600082015181600001908161126391906120e2565b50602082015181600101908161127991906120e2565b5060408201518160020160006101000a81548173ffffffffffffffffffffffffffffffffffffffff021916908373ffffffffffffffffffffffffffffffffffffffff16021790555060608201518160030155905050600180600083815260200190815260200160002060003373ffffffffffffffffffffffffffffffffffffffff1673ffffffffffffffffffffffffffffffffffffffff16815260200190815260200160002060006101000a81548160ff021916908315150217905550600260003373ffffffffffffffffffffffffffffffffffffffff1673ffffffffffffffffffffffffffffffffffffffff1681526020019081526020016000208190806001815401808255809150506001900390600052602060002001600090919091909150553373ffffffffffffffffffffffffffffffffffffffff16817f998081f6704b4b62500b58f2a61aec83e1b44865f5836eb36c391e73aa20486a87878787426040516113eb9594939291906121f0565b60405180910390a3949350505050565b600060205280600052604060002060009150905080600001805461141e90611ba8565b80601f016020809104026020016040519081016040528092919081815260200182805461144a90611ba8565b80156114975780601f1061146c57610100808354040283529160200191611497565b820191906000526020600020905b81548152906001019060200180831161147a57829003601f168201915b5050505050908060010180546114ac90611ba8565b80601f01602080910402602001604051908101604052809291908181526020018280546114d890611ba8565b80156115255780601f106114fa57610100808354040283529160200191611525565b820191906000526020600020905b81548152906001019060200180831161150857829003601f168201915b5050505050908060020160009054906101000a900473ffffffffffffffffffffffffffffffffffffffff16908060030154905084565b600080fd5b600080fd5b6000819050919050565b61157881611565565b811461158357600080fd5b50565b6000813590506115958161156f565b92915050565b6000602082840312156115b1576115b061155b565b5b60006115bf84828501611586565b91505092915050565b600081519050919050565b600082825260208201905092915050565b60005b838110156116025780820151818401526020810190506115e7565b60008484015250505050565b6000601f19601f8301169050919050565b600061162a826115c8565b61163481856115d3565b93506116448185602086016115e4565b61164d8161160e565b840191505092915050565b600073ffffffffffffffffffffffffffffffffffffffff82169050919050565b600061168382611658565b9050919050565b61169381611678565b82525050565b6116a281611565565b82525050565b600060808201905081810360008301526116c2818761161f565b905081810360208301526116d6818661161f565b90506116e5604083018561168a565b6116f26060830184611699565b95945050505050565b60006020820190506117106000830184611699565b92915050565b61171f81611678565b811461172a57600080fd5b50565b60008135905061173c81611716565b92915050565b600080604083850312156117595761175861155b565b5b600061176785828601611586565b92505060206117788582860161172d565b9150509250929050565b6000602082840312156117985761179761155b565b5b60006117a68482850161172d565b91505092915050565b600081519050919050565b600082825260208201905092915050565b6000819050602082019050919050565b6117e481611565565b82525050565b60006117f683836117db565b60208301905092915050565b6000602082019050919050565b600061181a826117af565b61182481856117ba565b935061182f836117cb565b8060005b8381101561186057815161184788826117ea565b975061185283611802565b925050600181019050611833565b5085935050505092915050565b60006020820190508181036000830152611887818461180f565b905092915050565b60008115159050919050565b6118a48161188f565b82525050565b60006020820190506118bf600083018461189b565b92915050565b600080604083850312156118dc576118db61155b565b5b60006118ea8582860161172d565b92505060206118fb85828601611586565b9150509250929050565b600080fd5b600080fd5b600080fd5b60008083601f84011261192a57611929611905565b5b8235905067ffffffffffffffff8111156119475761194661190a565b5b6020830191508360208202830111156119635761196261190f565b5b9250929050565b6000806000604084860312156119835761198261155b565b5b600061199186828701611586565b935050602084013567ffffffffffffffff8111156119b2576119b1611560565b5b6119be86828701611914565b92509250509250925092565b60008083601f8401126119e0576119df611905565b5b8235905067ffffffffffffffff8111156119fd576119fc61190a565b5b602083019150836001820283011115611a1957611a1861190f565b5b9250929050565b60008060008060408587031215611a3a57611a3961155b565b5b600085013567ffffffffffffffff811115611a5857611a57611560565b5b611a64878288016119ca565b9450945050602085013567ffffffffffffffff811115611a8757611a86611560565b5b611a93878288016119ca565b925092505092959194509250565b7f46696c6520646f6573206e6f7420657869737400000000000000000000000000600082015250565b6000611ad76013836115d3565b9150611ae282611aa1565b602082019050919050565b60006020820190508181036000830152611b0681611aca565b9050919050565b7f4e6f2061636365737320746f20746869732066696c6500000000000000000000600082015250565b6000611b436016836115d3565b9150611b4e82611b0d565b602082019050919050565b60006020820190508181036000830152611b7281611b36565b9050919050565b7f4e487b7100000000000000000000000000000000000000000000000000000000600052602260045260246000fd5b60006002820490506001821680611bc057607f821691505b602082108103611bd357611bd2611b79565b5b50919050565b7f4e6f74207468652066696c65206f776e65720000000000000000000000000000600082015250565b6000611c0f6012836115d3565b9150611c1a82611bd9565b602082019050919050565b60006020820190508181036000830152611c3e81611c02565b9050919050565b7f496e76616c696420616464726573730000000000000000000000000000000000600082015250565b6000611c7b600f836115d3565b9150611c8682611c45565b602082019050919050565b60006020820190508181036000830152611caa81611c6e565b9050919050565b7f416c726561647920686173206163636573730000000000000000000000000000600082015250565b6000611ce76012836115d3565b9150611cf282611cb1565b602082019050919050565b60006020820190508181036000830152611d1681611cda565b9050919050565b7f43616e6e6f74207265766f6b65206f776e206163636573730000000000000000600082015250565b6000611d536018836115d3565b9150611d5e82611d1d565b602082019050919050565b60006020820190508181036000830152611d8281611d46565b9050919050565b7f446f6573206e6f74206861766520616363657373000000000000000000000000600082015250565b6000611dbf6014836115d3565b9150611dca82611d89565b602082019050919050565b60006020820190508181036000830152611dee81611db2565b9050919050565b7f4e487b7100000000000000000000000000000000000000000000000000000000600052603260045260246000fd5b7f4e487b7100000000000000000000000000000000000000000000000000000000600052601160045260246000fd5b6000611e5e82611565565b91507fffffffffffffffffffffffffffffffffffffffffffffffffffffffffffffffff8203611e9057611e8f611e24565b5b600182019050919050565b7f4349442063616e6e6f7420626520656d70747900000000000000000000000000600082015250565b6000611ed16013836115d3565b9150611edc82611e9b565b602082019050919050565b60006020820190508181036000830152611f0081611ec4565b9050919050565b7f4e487b7100000000000000000000000000000000000000000000000000000000600052604160045260246000fd5b60008190508160005260206000209050919050565b60006020601f8301049050919050565b600082821b905092915050565b600060088302611f987fffffffffffffffffffffffffffffffffffffffffffffffffffffffffffffffff82611f5b565b611fa28683611f5b565b95508019841693508086168417925050509392505050565b6000819050919050565b6000611fdf611fda611fd584611565565b611fba565b611565565b9050919050565b6000819050919050565b611ff983611fc4565b61200d61200582611fe6565b848454611f68565b825550505050565b600090565b612022612015565b61202d818484611ff0565b505050565b5b818110156120515761204660008261201a565b600181019050612033565b5050565b601f8211156120965761206781611f36565b61207084611f4b565b8101602085101561207f578190505b61209361208b85611f4b565b830182612032565b50505b505050565b600082821c905092915050565b60006120b96000198460080261209b565b1980831691505092915050565b60006120d283836120a8565b9150826002028217905092915050565b6120eb826115c8565b67ffffffffffffffff81111561210457612103611f07565b5b61210e8254611ba8565b612119828285612055565b600060209050601f83116001811461214c576000841561213a578287015190505b61214485826120c6565b8655506121ac565b601f19841661215a86611f36565b60005b828110156121825784890151825560018201915060208501945060208101905061215d565b8683101561219f578489015161219b601f8916826120a8565b8355505b6001600288020188555050505b505050505050565b82818337600083830152505050565b60006121cf83856115d3565b93506121dc8385846121b4565b6121e58361160e565b840190509392505050565b6000606082019050818103600083015261220b8187896121c3565b905081810360208301526122208185876121c3565b905061222f6040830184611699565b969550505050505056fea26469706673582212207cd25539e93af46c35866c4271ecaee09dc2e7fa8843981b6fcdd9342bd7b6fb64736f6c63430008140033",
  "linkReferences": {},
  "deployedLinkReferences": {}
}